{
  "_format": "hh-sol-artifact-1",
  "contractName": "ChainOfCustody",
  "sourceName": "contracts/contract.sol",
  "abi": [
    {
      "inputs": [],
      "stateMutability": "nonpayable",
      "type": "constructor"
    },
    {
      "inputs": [
        {
          "internalType": "address",
          "name": "sender",
          "type": "address"
        },
        {
          "internalType": "uint256",
          "name": "tokenId",
          "type": "uint256"
        },
        {
          "internalType": "address",
          "name": "owner",
          "type": "address"
        }
      ],
      "name": "ERC721IncorrectOwner",
      "type": "error"
    },
    {
      "inputs": [
        {
          "internalType": "address",
          "name": "operator",
          "type": "address"
        },
        {
          "internalType": "uint256",
          "name": "tokenId",
          "type": "uint256"
        }
      ],
      "name": "ERC721InsufficientApproval",
      "type": "error"
    },
    {
      "inputs": [
        {
          "internalType": "address",
          "name": "approver",
          "type": "address"
        }
      ],
      "name": "ERC721InvalidApprover",
      "type": "error"
    },
    {
      "inputs": [
        {
          "internalType": "address",
          "name": "operator",
          "type": "address"
        }
      ],
      "name": "ERC721InvalidOperator",
      "type": "error"
    },
    {
      "inputs": [
        {
          "internalType": "address",
          "name": "owner",
          "type": "address"
        }
      ],
      "name": "ERC721InvalidOwner",
      "type": "error"
    },
    {
      "inputs": [
        {
          "internalType": "address",
          "name": "receiver",
          "type": "address"
        }
      ],
      "name": "ERC721InvalidReceiver",
      "type": "error"
    },
    {
      "inputs": [
        {
          "internalType": "address",
          "name": "sender",
          "type": "address"
        }
      ],
      "name": "ERC721InvalidSender",
      "type": "error"
    },
    {
      "inputs": [
        {
          "internalType": "uint256",
          "name": "tokenId",
          "type": "uint256"
        }
      ],
      "name": "ERC721NonexistentToken",
      "type": "error"
    },
    {
      "anonymous": false,
      "inputs": [
        {
          "indexed": true,
          "internalType": "address",
          "name": "owner",
          "type": "address"
        },
        {
          "indexed": true,
          "internalType": "address",
          "name": "approved",
          "type": "address"
        },
        {
          "indexed": true,
          "internalType": "uint256",
          "name": "tokenId",
          "type": "uint256"
        }
      ],
      "name": "Approval",
      "type": "event"
    },
    {
      "anonymous": false,
      "inputs": [
        {
          "indexed": true,
          "internalType": "address",
          "name": "owner",
          "type": "address"
        },
        {
          "indexed": true,
          "internalType": "address",
          "name": "operator",
          "type": "address"
        },
        {
          "indexed": false,
          "internalType": "bool",
          "name": "approved",
          "type": "bool"
        }
      ],
      "name": "ApprovalForAll",
      "type": "event"
    },
    {
      "anonymous": false,
      "inputs": [
        {
          "indexed": true,
          "internalType": "uint256",
          "name": "evidenceId",
          "type": "uint256"
        },
        {
          "indexed": true,
          "internalType": "address",
          "name": "fromCustodian",
          "type": "address"
        },
        {
          "indexed": true,
          "internalType": "address",
          "name": "toCustodian",
          "type": "address"
        },
        {
          "indexed": false,
          "internalType": "uint256",
          "name": "timestamp",
          "type": "uint256"
        }
      ],
      "name": "CustodyTransferred",
      "type": "event"
    },
    {
      "anonymous": false,
      "inputs": [
        {
          "indexed": true,
          "internalType": "uint256",
          "name": "evidenceId",
          "type": "uint256"
        },
        {
          "indexed": false,
          "internalType": "string",
          "name": "title",
          "type": "string"
        },
        {
          "indexed": false,
          "internalType": "string",
          "name": "description",
          "type": "string"
        },
        {
          "indexed": false,
          "internalType": "string",
          "name": "imageURI",
          "type": "string"
        },
        {
          "indexed": true,
          "internalType": "address",
          "name": "custodian",
          "type": "address"
        },
        {
          "indexed": false,
          "internalType": "uint256",
          "name": "timestamp",
          "type": "uint256"
        }
      ],
      "name": "EvidenceRegistered",
      "type": "event"
    },
    {
      "anonymous": false,
      "inputs": [
        {
          "indexed": true,
          "internalType": "address",
          "name": "from",
          "type": "address"
        },
        {
          "indexed": true,
          "internalType": "address",
          "name": "to",
          "type": "address"
        },
        {
          "indexed": true,
          "internalType": "uint256",
          "name": "tokenId",
          "type": "uint256"
        }
      ],
      "name": "Transfer",
      "type": "event"
    },
    {
      "inputs": [],
      "name": "admin",
      "outputs": [
        {
          "internalType": "address",
          "name": "",
          "type": "address"
        }
      ],
      "stateMutability": "view",
      "type": "function"
    },
    {
      "inputs": [
        {
          "internalType": "address",
          "name": "to",
          "type": "address"
        },
        {
          "internalType": "uint256",
          "name": "tokenId",
          "type": "uint256"
        }
      ],
      "name": "approve",
      "outputs": [],
      "stateMutability": "nonpayable",
      "type": "function"
    },
    {
      "inputs": [
        {
          "internalType": "address",
          "name": "owner",
          "type": "address"
        }
      ],
      "name": "balanceOf",
      "outputs": [
        {
          "internalType": "uint256",
          "name": "",
          "type": "uint256"
        }
      ],
      "stateMutability": "view",
      "type": "function"
    },
    {
      "inputs": [
        {
          "internalType": "uint256",
          "name": "",
          "type": "uint256"
        },
        {
          "internalType": "uint256",
          "name": "",
          "type": "uint256"
        }
      ],
      "name": "custodyHistory",
      "outputs": [
        {
          "internalType": "uint256",
          "name": "evidenceId",
          "type": "uint256"
        },
        {
          "internalType": "address",
          "name": "fromCustodian",
          "type": "address"
        },
        {
          "internalType": "address",
          "name": "toCustodian",
          "type": "address"
        },
        {
          "internalType": "uint256",
          "name": "timestamp",
          "type": "uint256"
        }
      ],
      "stateMutability": "view",
      "type": "function"
    },
    {
      "inputs": [
        {
          "internalType": "uint256",
          "name": "",
          "type": "uint256"
        }
      ],
      "name": "evidences",
      "outputs": [
        {
          "internalType": "uint256",
          "name": "id",
          "type": "uint256"
        },
        {
          "internalType": "string",
          "name": "title",
          "type": "string"
        },
        {
          "internalType": "string",
          "name": "description",
          "type": "string"
        },
        {
          "internalType": "string",
          "name": "imageURI",
          "type": "string"
        },
        {
          "internalType": "address",
          "name": "currentCustodian",
          "type": "address"
        },
        {
          "internalType": "uint256",
          "name": "timestamp",
          "type": "uint256"
        },
        {
          "internalType": "bool",
          "name": "exists",
          "type": "bool"
        }
      ],
      "stateMutability": "view",
      "type": "function"
    },
    {
      "inputs": [
        {
          "internalType": "uint256",
          "name": "tokenId",
          "type": "uint256"
        }
      ],
      "name": "getApproved",
      "outputs": [
        {
          "internalType": "address",
          "name": "",
          "type": "address"
        }
      ],
      "stateMutability": "view",
      "type": "function"
    },
    {
      "inputs": [
        {
          "internalType": "uint256",
          "name": "_evidenceId",
          "type": "uint256"
        }
      ],
      "name": "getCurrentCustodian",
      "outputs": [
        {
          "internalType": "address",
          "name": "",
          "type": "address"
        }
      ],
      "stateMutability": "view",
      "type": "function"
    },
    {
      "inputs": [
        {
          "internalType": "uint256",
          "name": "_evidenceId",
          "type": "uint256"
        }
      ],
      "name": "getCustodyHistory",
      "outputs": [
        {
          "components": [
            {
              "internalType": "uint256",
              "name": "evidenceId",
              "type": "uint256"
            },
            {
              "internalType": "address",
              "name": "fromCustodian",
              "type": "address"
            },
            {
              "internalType": "address",
              "name": "toCustodian",
              "type": "address"
            },
            {
              "internalType": "uint256",
              "name": "timestamp",
              "type": "uint256"
            }
          ],
          "internalType": "struct ChainOfCustody.CustodyRecord[]",
          "name": "",
          "type": "tuple[]"
        }
      ],
      "stateMutability": "view",
      "type": "function"
    },
    {
      "inputs": [
        {
          "internalType": "uint256",
          "name": "_evidenceId",
          "type": "uint256"
        }
      ],
      "name": "getEvidenceMetadata",
      "outputs": [
        {
          "internalType": "string",
          "name": "",
          "type": "string"
        },
        {
          "internalType": "string",
          "name": "",
          "type": "string"
        },
        {
          "internalType": "string",
          "name": "",
          "type": "string"
        }
      ],
      "stateMutability": "view",
      "type": "function"
    },
    {
      "inputs": [
        {
          "internalType": "address",
          "name": "owner",
          "type": "address"
        },
        {
          "internalType": "address",
          "name": "operator",
          "type": "address"
        }
      ],
      "name": "isApprovedForAll",
      "outputs": [
        {
          "internalType": "bool",
          "name": "",
          "type": "bool"
        }
      ],
      "stateMutability": "view",
      "type": "function"
    },
    {
      "inputs": [],
      "name": "name",
      "outputs": [
        {
          "internalType": "string",
          "name": "",
          "type": "string"
        }
      ],
      "stateMutability": "view",
      "type": "function"
    },
    {
      "inputs": [
        {
          "internalType": "uint256",
          "name": "tokenId",
          "type": "uint256"
        }
      ],
      "name": "ownerOf",
      "outputs": [
        {
          "internalType": "address",
          "name": "",
          "type": "address"
        }
      ],
      "stateMutability": "view",
      "type": "function"
    },
    {
      "inputs": [
        {
          "internalType": "string",
          "name": "_title",
          "type": "string"
        },
        {
          "internalType": "string",
          "name": "_description",
          "type": "string"
        },
        {
          "internalType": "string",
          "name": "_imageURI",
          "type": "string"
        }
      ],
      "name": "registerEvidence",
      "outputs": [],
      "stateMutability": "nonpayable",
      "type": "function"
    },
    {
      "inputs": [
        {
          "internalType": "address",
          "name": "from",
          "type": "address"
        },
        {
          "internalType": "address",
          "name": "to",
          "type": "address"
        },
        {
          "internalType": "uint256",
          "name": "tokenId",
          "type": "uint256"
        }
      ],
      "name": "safeTransferFrom",
      "outputs": [],
      "stateMutability": "nonpayable",
      "type": "function"
    },
    {
      "inputs": [
        {
          "internalType": "address",
          "name": "from",
          "type": "address"
        },
        {
          "internalType": "address",
          "name": "to",
          "type": "address"
        },
        {
          "internalType": "uint256",
          "name": "tokenId",
          "type": "uint256"
        },
        {
          "internalType": "bytes",
          "name": "data",
          "type": "bytes"
        }
      ],
      "name": "safeTransferFrom",
      "outputs": [],
      "stateMutability": "nonpayable",
      "type": "function"
    },
    {
      "inputs": [
        {
          "internalType": "address",
          "name": "operator",
          "type": "address"
        },
        {
          "internalType": "bool",
          "name": "approved",
          "type": "bool"
        }
      ],
      "name": "setApprovalForAll",
      "outputs": [],
      "stateMutability": "nonpayable",
      "type": "function"
    },
    {
      "inputs": [
        {
          "internalType": "bytes4",
          "name": "interfaceId",
          "type": "bytes4"
        }
      ],
      "name": "supportsInterface",
      "outputs": [
        {
          "internalType": "bool",
          "name": "",
          "type": "bool"
        }
      ],
      "stateMutability": "view",
      "type": "function"
    },
    {
      "inputs": [],
      "name": "symbol",
      "outputs": [
        {
          "internalType": "string",
          "name": "",
          "type": "string"
        }
      ],
      "stateMutability": "view",
      "type": "function"
    },
    {
      "inputs": [
        {
          "internalType": "uint256",
          "name": "tokenId",
          "type": "uint256"
        }
      ],
      "name": "tokenURI",
      "outputs": [
        {
          "internalType": "string",
          "name": "",
          "type": "string"
        }
      ],
      "stateMutability": "view",
      "type": "function"
    },
    {
      "inputs": [
        {
          "internalType": "uint256",
          "name": "_evidenceId",
          "type": "uint256"
        },
        {
          "internalType": "address",
          "name": "_newCustodian",
          "type": "address"
        }
      ],
      "name": "transferCustody",
      "outputs": [],
      "stateMutability": "nonpayable",
      "type": "function"
    },
    {
      "inputs": [
        {
          "internalType": "address",
          "name": "from",
          "type": "address"
        },
        {
          "internalType": "address",
          "name": "to",
          "type": "address"
        },
        {
          "internalType": "uint256",
          "name": "tokenId",
          "type": "uint256"
        }
      ],
      "name": "transferFrom",
      "outputs": [],
      "stateMutability": "nonpayable",
      "type": "function"
    }
  ],
  "bytecode": "0x60806040523480156200001157600080fd5b506040518060400160405280601381526020017f436861696e4f66437573746f6479546f6b656e0000000000000000000000000081525060405180604001604052806003815260200162434f4360e81b815250816000908162000075919062000149565b50600162000084828262000149565b5050600880546001600160a01b0319163317905550600060095562000215565b634e487b7160e01b600052604160045260246000fd5b600181811c90821680620000cf57607f821691505b602082108103620000f057634e487b7160e01b600052602260045260246000fd5b50919050565b601f8211156200014457600081815260208120601f850160051c810160208610156200011f5750805b601f850160051c820191505b8181101562000140578281556001016200012b565b5050505b505050565b81516001600160401b03811115620001655762000165620000a4565b6200017d81620001768454620000ba565b84620000f6565b602080601f831160018114620001b557600084156200019c5750858301515b600019600386901b1c1916600185901b17855562000140565b600085815260208120601f198616915b82811015620001e657888601518255948401946001909101908401620001c5565b5085821015620002055787850151600019600388901b60f8161c191681555b5050505050600190811b01905550565b611caf80620002256000396000f3fe608060405234801561001057600080fd5b50600436106101375760003560e01c8063815fc9bb116100b8578063c87b56dd1161007c578063c87b56dd146102b9578063ce22d7da146102cc578063d75af31e1461030f578063e985e9c51461032f578063f6440ca014610342578063f851a4401461036457600080fd5b8063815fc9bb1461026557806395d89b4114610278578063a22cb46514610280578063b7fe126414610293578063b88d4fde146102a657600080fd5b806323b872dd116100ff57806323b872dd146101e55780632e4546cd146101f857806342842e0e1461021e5780636352211e1461023157806370a082311461024457600080fd5b806301ffc9a71461013c57806305d5f5151461016457806306fdde03146101a8578063081812fc146101bd578063095ea7b3146101d0575b600080fd5b61014f61014a366004611591565b610377565b60405190151581526020015b60405180910390f35b6101906101723660046115ae565b6000908152600660205260409020600401546001600160a01b031690565b6040516001600160a01b03909116815260200161015b565b6101b06103c9565b60405161015b9190611617565b6101906101cb3660046115ae565b61045b565b6101e36101de366004611646565b610484565b005b6101e36101f3366004611670565b610493565b61020b6102063660046115ae565b610523565b60405161015b97969594939291906116ac565b6101e361022c366004611670565b610705565b61019061023f3660046115ae565b610725565b610257610252366004611716565b610730565b60405190815260200161015b565b6101e3610273366004611731565b610778565b6101b0610935565b6101e361028e36600461175d565b610944565b6101e36102a1366004611845565b61094f565b6101e36102b43660046118cd565b610a8a565b6101b06102c73660046115ae565b610aa2565b6102df6102da366004611949565b610b17565b60405161015b94939291909384526001600160a01b03928316602085015291166040830152606082015260800190565b61032261031d3660046115ae565b610b6c565b60405161015b919061196b565b61014f61033d3660046119db565b610c0c565b6103556103503660046115ae565b610c3a565b60405161015b93929190611a05565b600854610190906001600160a01b031681565b60006001600160e01b031982166380ac58cd60e01b14806103a857506001600160e01b03198216635b5e139f60e01b145b806103c357506301ffc9a760e01b6001600160e01b03198316145b92915050565b6060600080546103d890611a48565b80601f016020809104026020016040519081016040528092919081815260200182805461040490611a48565b80156104515780601f1061042657610100808354040283529160200191610451565b820191906000526020600020905b81548152906001019060200180831161043457829003601f168201915b5050505050905090565b600061046682610ecf565b506000828152600460205260409020546001600160a01b03166103c3565b61048f828233610f08565b5050565b6001600160a01b0382166104c257604051633250574960e11b8152600060048201526024015b60405180910390fd5b60006104cf838333610f15565b9050836001600160a01b0316816001600160a01b03161461051d576040516364283d7b60e01b81526001600160a01b03808616600483015260248201849052821660448201526064016104b9565b50505050565b6006602052600090815260409020805460018201805491929161054590611a48565b80601f016020809104026020016040519081016040528092919081815260200182805461057190611a48565b80156105be5780601f10610593576101008083540402835291602001916105be565b820191906000526020600020905b8154815290600101906020018083116105a157829003601f168201915b5050505050908060020180546105d390611a48565b80601f01602080910402602001604051908101604052809291908181526020018280546105ff90611a48565b801561064c5780601f106106215761010080835404028352916020019161064c565b820191906000526020600020905b81548152906001019060200180831161062f57829003601f168201915b50505050509080600301805461066190611a48565b80601f016020809104026020016040519081016040528092919081815260200182805461068d90611a48565b80156106da5780601f106106af576101008083540402835291602001916106da565b820191906000526020600020905b8154815290600101906020018083116106bd57829003601f168201915b505050506004830154600584015460069094015492936001600160a01b039091169290915060ff1687565b61072083838360405180602001604052806000815250610a8a565b505050565b60006103c382610ecf565b60006001600160a01b03821661075c576040516322718ad960e21b8152600060048201526024016104b9565b506001600160a01b031660009081526003602052604090205490565b60008281526006602052604090206004015482906001600160a01b031633146107f45760405162461bcd60e51b815260206004820152602860248201527f6f6e6c79207468652063757272656e7420637573746f6469616e2063616e2063604482015267616c6c207468697360c01b60648201526084016104b9565b6000838152600660208190526040909120015460ff166108565760405162461bcd60e51b815260206004820152601760248201527f65766964656e636520646f6573206e6f7420657869737400000000000000000060448201526064016104b9565b604080516080810182528481523360208083018281526001600160a01b03878116858701818152426060880181815260008d8152600788528a81208054600180820183559183528983208c516004928302909101908155985191890180549289166001600160a01b03199384161790559451600289018054919098169082161790965590516003909601959095558b855260068652938890200180549092168117909155945190815292939287917f55f940726e9a2689d79bf3c29305c07b4df0134b15e5e06e78894b2d2fea3236910160405180910390a450505050565b6060600180546103d890611a48565b61048f33838361100e565b60098054908190600061096183611a82565b919050555061097033826110ad565b6040805160e0810182528281526020808201878152828401879052606083018690523360808401524260a0840152600160c08401819052600086815260069093529390912082518155905191929091908201906109cd9082611aef565b50604082015160028201906109e29082611aef565b50606082015160038201906109f79082611aef565b5060808201516004820180546001600160a01b0319166001600160a01b0390921691909117905560a0820151600582015560c0909101516006909101805460ff1916911515919091179055604051339082907f1382d768c9adce45b1bccf47357aa0446253628bf4bc8734dab548d5f1d02d2590610a7c908890889088904290611baf565b60405180910390a350505050565b610a95848484610493565b61051d3385858585611112565b6060610aad82610ecf565b506000610ac560408051602081019091526000815290565b90506000815111610ae55760405180602001604052806000815250610b10565b80610aef8461123d565b604051602001610b00929190611bfa565b6040516020818303038152906040525b9392505050565b60076020528160005260406000208181548110610b3357600080fd5b600091825260209091206004909102018054600182015460028301546003909301549194506001600160a01b0390811693509091169084565b606060076000838152602001908152602001600020805480602002602001604051908101604052809291908181526020016000905b82821015610c015760008481526020908190206040805160808101825260048602909201805483526001808201546001600160a01b0390811685870152600283015416928401929092526003015460608301529083529092019101610ba1565b505050509050919050565b6001600160a01b03918216600090815260056020908152604080832093909416825291909152205460ff1690565b600081815260066020819052604090912001546060908190819060ff16610ca35760405162461bcd60e51b815260206004820152601760248201527f45766964656e636520646f6573206e6f7420657869737400000000000000000060448201526064016104b9565b6000600660008681526020019081526020016000206040518060e001604052908160008201548152602001600182018054610cdd90611a48565b80601f0160208091040260200160405190810160405280929190818152602001828054610d0990611a48565b8015610d565780601f10610d2b57610100808354040283529160200191610d56565b820191906000526020600020905b815481529060010190602001808311610d3957829003601f168201915b50505050508152602001600282018054610d6f90611a48565b80601f0160208091040260200160405190810160405280929190818152602001828054610d9b90611a48565b8015610de85780601f10610dbd57610100808354040283529160200191610de8565b820191906000526020600020905b815481529060010190602001808311610dcb57829003601f168201915b50505050508152602001600382018054610e0190611a48565b80601f0160208091040260200160405190810160405280929190818152602001828054610e2d90611a48565b8015610e7a5780601f10610e4f57610100808354040283529160200191610e7a565b820191906000526020600020905b815481529060010190602001808311610e5d57829003601f168201915b505050918352505060048201546001600160a01b0316602080830191909152600583015460408084019190915260069093015460ff161515606092830152830151918301519201519097919650945092505050565b6000818152600260205260408120546001600160a01b0316806103c357604051637e27328960e01b8152600481018490526024016104b9565b61072083838360016112d0565b6000828152600260205260408120546001600160a01b0390811690831615610f4257610f428184866113d6565b6001600160a01b03811615610f8057610f5f6000856000806112d0565b6001600160a01b038116600090815260036020526040902080546000190190555b6001600160a01b03851615610faf576001600160a01b0385166000908152600360205260409020805460010190555b60008481526002602052604080822080546001600160a01b0319166001600160a01b0389811691821790925591518793918516917fddf252ad1be2c89b69c2b068fc378daa952ba7f163c4a11628f55a4df523b3ef91a4949350505050565b6001600160a01b03821661104057604051630b61174360e31b81526001600160a01b03831660048201526024016104b9565b6001600160a01b03838116600081815260056020908152604080832094871680845294825291829020805460ff191686151590811790915591519182527f17307eab39ab6107e8899845ad3d59bd9653f200f220920489ca2b5937696c31910160405180910390a3505050565b6001600160a01b0382166110d757604051633250574960e11b8152600060048201526024016104b9565b60006110e583836000610f15565b90506001600160a01b03811615610720576040516339e3563760e11b8152600060048201526024016104b9565b6001600160a01b0383163b1561123657604051630a85bd0160e11b81526001600160a01b0384169063150b7a0290611154908890889087908790600401611c29565b6020604051808303816000875af192505050801561118f575060408051601f3d908101601f1916820190925261118c91810190611c5c565b60015b6111f8573d8080156111bd576040519150601f19603f3d011682016040523d82523d6000602084013e6111c2565b606091505b5080516000036111f057604051633250574960e11b81526001600160a01b03851660048201526024016104b9565b805181602001fd5b6001600160e01b03198116630a85bd0160e11b1461123457604051633250574960e11b81526001600160a01b03851660048201526024016104b9565b505b5050505050565b6060600061124a8361143a565b600101905060008167ffffffffffffffff81111561126a5761126a611799565b6040519080825280601f01601f191660200182016040528015611294576020820181803683370190505b5090508181016020015b600019016f181899199a1a9b1b9c1cb0b131b232b360811b600a86061a8153600a850494508461129e57509392505050565b80806112e457506001600160a01b03821615155b156113a65760006112f484610ecf565b90506001600160a01b038316158015906113205750826001600160a01b0316816001600160a01b031614155b801561133357506113318184610c0c565b155b1561135c5760405163a9fbf51f60e01b81526001600160a01b03841660048201526024016104b9565b81156113a45783856001600160a01b0316826001600160a01b03167f8c5be1e5ebec7d5bd14f71427d1e84f3dd0314c0f7b2291e5b200ac8c7c3b92560405160405180910390a45b505b5050600090815260046020526040902080546001600160a01b0319166001600160a01b0392909216919091179055565b6113e1838383611512565b610720576001600160a01b03831661140f57604051637e27328960e01b8152600481018290526024016104b9565b60405163177e802f60e01b81526001600160a01b0383166004820152602481018290526044016104b9565b60008072184f03e93ff9f4daa797ed6e38ed64bf6a1f0160401b83106114795772184f03e93ff9f4daa797ed6e38ed64bf6a1f0160401b830492506040015b6d04ee2d6d415b85acef810000000083106114a5576d04ee2d6d415b85acef8100000000830492506020015b662386f26fc1000083106114c357662386f26fc10000830492506010015b6305f5e10083106114db576305f5e100830492506008015b61271083106114ef57612710830492506004015b60648310611501576064830492506002015b600a83106103c35760010192915050565b60006001600160a01b038316158015906115705750826001600160a01b0316846001600160a01b0316148061154c575061154c8484610c0c565b8061157057506000828152600460205260409020546001600160a01b038481169116145b949350505050565b6001600160e01b03198116811461158e57600080fd5b50565b6000602082840312156115a357600080fd5b8135610b1081611578565b6000602082840312156115c057600080fd5b5035919050565b60005b838110156115e25781810151838201526020016115ca565b50506000910152565b600081518084526116038160208601602086016115c7565b601f01601f19169290920160200192915050565b602081526000610b1060208301846115eb565b80356001600160a01b038116811461164157600080fd5b919050565b6000806040838503121561165957600080fd5b6116628361162a565b946020939093013593505050565b60008060006060848603121561168557600080fd5b61168e8461162a565b925061169c6020850161162a565b9150604084013590509250925092565b87815260e0602082015260006116c560e08301896115eb565b82810360408401526116d781896115eb565b905082810360608401526116eb81886115eb565b6001600160a01b03969096166080840152505060a0810192909252151560c090910152949350505050565b60006020828403121561172857600080fd5b610b108261162a565b6000806040838503121561174457600080fd5b823591506117546020840161162a565b90509250929050565b6000806040838503121561177057600080fd5b6117798361162a565b91506020830135801515811461178e57600080fd5b809150509250929050565b634e487b7160e01b600052604160045260246000fd5b600067ffffffffffffffff808411156117ca576117ca611799565b604051601f8501601f19908116603f011681019082821181831017156117f2576117f2611799565b8160405280935085815286868601111561180b57600080fd5b858560208301376000602087830101525050509392505050565b600082601f83011261183657600080fd5b610b10838335602085016117af565b60008060006060848603121561185a57600080fd5b833567ffffffffffffffff8082111561187257600080fd5b61187e87838801611825565b9450602086013591508082111561189457600080fd5b6118a087838801611825565b935060408601359150808211156118b657600080fd5b506118c386828701611825565b9150509250925092565b600080600080608085870312156118e357600080fd5b6118ec8561162a565b93506118fa6020860161162a565b925060408501359150606085013567ffffffffffffffff81111561191d57600080fd5b8501601f8101871361192e57600080fd5b61193d878235602084016117af565b91505092959194509250565b6000806040838503121561195c57600080fd5b50508035926020909101359150565b602080825282518282018190526000919060409081850190868401855b828110156119ce57815180518552868101516001600160a01b03908116888701528682015116868601526060908101519085015260809093019290850190600101611988565b5091979650505050505050565b600080604083850312156119ee57600080fd5b6119f78361162a565b91506117546020840161162a565b606081526000611a1860608301866115eb565b8281036020840152611a2a81866115eb565b90508281036040840152611a3e81856115eb565b9695505050505050565b600181811c90821680611a5c57607f821691505b602082108103611a7c57634e487b7160e01b600052602260045260246000fd5b50919050565b600060018201611aa257634e487b7160e01b600052601160045260246000fd5b5060010190565b601f82111561072057600081815260208120601f850160051c81016020861015611ad05750805b601f850160051c820191505b8181101561123457828155600101611adc565b815167ffffffffffffffff811115611b0957611b09611799565b611b1d81611b178454611a48565b84611aa9565b602080601f831160018114611b525760008415611b3a5750858301515b600019600386901b1c1916600185901b178555611234565b600085815260208120601f198616915b82811015611b8157888601518255948401946001909101908401611b62565b5085821015611b9f5787850151600019600388901b60f8161c191681555b5050505050600190811b01905550565b608081526000611bc260808301876115eb565b8281036020840152611bd481876115eb565b90508281036040840152611be881866115eb565b91505082606083015295945050505050565b60008351611c0c8184602088016115c7565b835190830190611c208183602088016115c7565b01949350505050565b6001600160a01b0385811682528416602082015260408101839052608060608201819052600090611a3e908301846115eb565b600060208284031215611c6e57600080fd5b8151610b108161157856fea264697066735822122014386cd99c879d97061ac6b182301b1d21ee0b981d4d4bc7226d63827f0be41764736f6c63430008140033",
  "linkReferences": {},
  "deployedLinkReferences": {}
}