{
  "_format": "hh-sol-artifact-1",
  "contractName": "ChainOfCustody",
  "sourceName": "contracts/contract.sol",
  "abi": [
    {
      "inputs": [],
      "stateMutability": "nonpayable",
      "type": "constructor"
    },
    {
      "inputs": [
        {
          "internalType": "address",
          "name": "sender",
          "type": "address"
        },
        {
          "internalType": "uint256",
          "name": "tokenId",
          "type": "uint256"
        },
        {
          "internalType": "address",
          "name": "owner",
          "type": "address"
        }
      ],
      "name": "ERC721IncorrectOwner",
      "type": "error"
    },
    {
      "inputs": [
        {
          "internalType": "address",
          "name": "operator",
          "type": "address"
        },
        {
          "internalType": "uint256",
          "name": "tokenId",
          "type": "uint256"
        }
      ],
      "name": "ERC721InsufficientApproval",
      "type": "error"
    },
    {
      "inputs": [
        {
          "internalType": "address",
          "name": "approver",
          "type": "address"
        }
      ],
      "name": "ERC721InvalidApprover",
      "type": "error"
    },
    {
      "inputs": [
        {
          "internalType": "address",
          "name": "operator",
          "type": "address"
        }
      ],
      "name": "ERC721InvalidOperator",
      "type": "error"
    },
    {
      "inputs": [
        {
          "internalType": "address",
          "name": "owner",
          "type": "address"
        }
      ],
      "name": "ERC721InvalidOwner",
      "type": "error"
    },
    {
      "inputs": [
        {
          "internalType": "address",
          "name": "receiver",
          "type": "address"
        }
      ],
      "name": "ERC721InvalidReceiver",
      "type": "error"
    },
    {
      "inputs": [
        {
          "internalType": "address",
          "name": "sender",
          "type": "address"
        }
      ],
      "name": "ERC721InvalidSender",
      "type": "error"
    },
    {
      "inputs": [
        {
          "internalType": "uint256",
          "name": "tokenId",
          "type": "uint256"
        }
      ],
      "name": "ERC721NonexistentToken",
      "type": "error"
    },
    {
      "anonymous": false,
      "inputs": [
        {
          "indexed": true,
          "internalType": "address",
          "name": "owner",
          "type": "address"
        },
        {
          "indexed": true,
          "internalType": "address",
          "name": "approved",
          "type": "address"
        },
        {
          "indexed": true,
          "internalType": "uint256",
          "name": "tokenId",
          "type": "uint256"
        }
      ],
      "name": "Approval",
      "type": "event"
    },
    {
      "anonymous": false,
      "inputs": [
        {
          "indexed": true,
          "internalType": "address",
          "name": "owner",
          "type": "address"
        },
        {
          "indexed": true,
          "internalType": "address",
          "name": "operator",
          "type": "address"
        },
        {
          "indexed": false,
          "internalType": "bool",
          "name": "approved",
          "type": "bool"
        }
      ],
      "name": "ApprovalForAll",
      "type": "event"
    },
    {
      "anonymous": false,
      "inputs": [
        {
          "indexed": true,
          "internalType": "uint256",
          "name": "evidenceId",
          "type": "uint256"
        },
        {
          "indexed": true,
          "internalType": "address",
          "name": "fromCustodian",
          "type": "address"
        },
        {
          "indexed": true,
          "internalType": "address",
          "name": "toCustodian",
          "type": "address"
        },
        {
          "indexed": false,
          "internalType": "uint256",
          "name": "timestamp",
          "type": "uint256"
        }
      ],
      "name": "CustodyTransferred",
      "type": "event"
    },
    {
      "anonymous": false,
      "inputs": [
        {
          "indexed": true,
          "internalType": "uint256",
          "name": "evidenceId",
          "type": "uint256"
        },
        {
          "indexed": false,
          "internalType": "string",
          "name": "title",
          "type": "string"
        },
        {
          "indexed": false,
          "internalType": "string",
          "name": "description",
          "type": "string"
        },
        {
          "indexed": false,
          "internalType": "string",
          "name": "imageURI",
          "type": "string"
        },
        {
          "indexed": true,
          "internalType": "address",
          "name": "custodian",
          "type": "address"
        },
        {
          "indexed": false,
          "internalType": "uint256",
          "name": "timestamp",
          "type": "uint256"
        }
      ],
      "name": "EvidenceRegistered",
      "type": "event"
    },
    {
      "anonymous": false,
      "inputs": [
        {
          "indexed": true,
          "internalType": "address",
          "name": "from",
          "type": "address"
        },
        {
          "indexed": true,
          "internalType": "address",
          "name": "to",
          "type": "address"
        },
        {
          "indexed": true,
          "internalType": "uint256",
          "name": "tokenId",
          "type": "uint256"
        }
      ],
      "name": "Transfer",
      "type": "event"
    },
    {
      "inputs": [],
      "name": "admin",
      "outputs": [
        {
          "internalType": "address",
          "name": "",
          "type": "address"
        }
      ],
      "stateMutability": "view",
      "type": "function"
    },
    {
      "inputs": [
        {
          "internalType": "address",
          "name": "to",
          "type": "address"
        },
        {
          "internalType": "uint256",
          "name": "tokenId",
          "type": "uint256"
        }
      ],
      "name": "approve",
      "outputs": [],
      "stateMutability": "nonpayable",
      "type": "function"
    },
    {
      "inputs": [
        {
          "internalType": "address",
          "name": "owner",
          "type": "address"
        }
      ],
      "name": "balanceOf",
      "outputs": [
        {
          "internalType": "uint256",
          "name": "",
          "type": "uint256"
        }
      ],
      "stateMutability": "view",
      "type": "function"
    },
    {
      "inputs": [
        {
          "internalType": "uint256",
          "name": "",
          "type": "uint256"
        },
        {
          "internalType": "uint256",
          "name": "",
          "type": "uint256"
        }
      ],
      "name": "custodyHistory",
      "outputs": [
        {
          "internalType": "uint256",
          "name": "evidenceId",
          "type": "uint256"
        },
        {
          "internalType": "address",
          "name": "fromCustodian",
          "type": "address"
        },
        {
          "internalType": "address",
          "name": "toCustodian",
          "type": "address"
        },
        {
          "internalType": "uint256",
          "name": "timestamp",
          "type": "uint256"
        }
      ],
      "stateMutability": "view",
      "type": "function"
    },
    {
      "inputs": [
        {
          "internalType": "uint256",
          "name": "",
          "type": "uint256"
        }
      ],
      "name": "evidences",
      "outputs": [
        {
          "internalType": "uint256",
          "name": "id",
          "type": "uint256"
        },
        {
          "internalType": "string",
          "name": "title",
          "type": "string"
        },
        {
          "internalType": "string",
          "name": "description",
          "type": "string"
        },
        {
          "internalType": "string",
          "name": "imageURI",
          "type": "string"
        },
        {
          "internalType": "address",
          "name": "currentCustodian",
          "type": "address"
        },
        {
          "internalType": "uint256",
          "name": "timestamp",
          "type": "uint256"
        },
        {
          "internalType": "bool",
          "name": "exists",
          "type": "bool"
        }
      ],
      "stateMutability": "view",
      "type": "function"
    },
    {
      "inputs": [
        {
          "internalType": "uint256",
          "name": "tokenId",
          "type": "uint256"
        }
      ],
      "name": "getApproved",
      "outputs": [
        {
          "internalType": "address",
          "name": "",
          "type": "address"
        }
      ],
      "stateMutability": "view",
      "type": "function"
    },
    {
      "inputs": [
        {
          "internalType": "uint256",
          "name": "_evidenceId",
          "type": "uint256"
        }
      ],
      "name": "getCurrentCustodian",
      "outputs": [
        {
          "internalType": "address",
          "name": "",
          "type": "address"
        }
      ],
      "stateMutability": "view",
      "type": "function"
    },
    {
      "inputs": [
        {
          "internalType": "uint256",
          "name": "_evidenceId",
          "type": "uint256"
        }
      ],
      "name": "getCustodyHistory",
      "outputs": [
        {
          "components": [
            {
              "internalType": "uint256",
              "name": "evidenceId",
              "type": "uint256"
            },
            {
              "internalType": "address",
              "name": "fromCustodian",
              "type": "address"
            },
            {
              "internalType": "address",
              "name": "toCustodian",
              "type": "address"
            },
            {
              "internalType": "uint256",
              "name": "timestamp",
              "type": "uint256"
            }
          ],
          "internalType": "struct ChainOfCustody.CustodyRecord[]",
          "name": "",
          "type": "tuple[]"
        }
      ],
      "stateMutability": "view",
      "type": "function"
    },
    {
      "inputs": [
        {
          "internalType": "uint256",
          "name": "_evidenceId",
          "type": "uint256"
        }
      ],
      "name": "getEvidenceMetadata",
      "outputs": [
        {
          "internalType": "string",
          "name": "",
          "type": "string"
        },
        {
          "internalType": "string",
          "name": "",
          "type": "string"
        },
        {
          "internalType": "string",
          "name": "",
          "type": "string"
        }
      ],
      "stateMutability": "view",
      "type": "function"
    },
    {
      "inputs": [
        {
          "internalType": "address",
          "name": "owner",
          "type": "address"
        },
        {
          "internalType": "address",
          "name": "operator",
          "type": "address"
        }
      ],
      "name": "isApprovedForAll",
      "outputs": [
        {
          "internalType": "bool",
          "name": "",
          "type": "bool"
        }
      ],
      "stateMutability": "view",
      "type": "function"
    },
    {
      "inputs": [],
      "name": "name",
      "outputs": [
        {
          "internalType": "string",
          "name": "",
          "type": "string"
        }
      ],
      "stateMutability": "view",
      "type": "function"
    },
    {
      "inputs": [
        {
          "internalType": "uint256",
          "name": "tokenId",
          "type": "uint256"
        }
      ],
      "name": "ownerOf",
      "outputs": [
        {
          "internalType": "address",
          "name": "",
          "type": "address"
        }
      ],
      "stateMutability": "view",
      "type": "function"
    },
    {
      "inputs": [
        {
          "internalType": "string",
          "name": "_title",
          "type": "string"
        },
        {
          "internalType": "string",
          "name": "_description",
          "type": "string"
        },
        {
          "internalType": "string",
          "name": "_imageURI",
          "type": "string"
        }
      ],
      "name": "registerEvidence",
      "outputs": [],
      "stateMutability": "nonpayable",
      "type": "function"
    },
    {
      "inputs": [
        {
          "internalType": "address",
          "name": "from",
          "type": "address"
        },
        {
          "internalType": "address",
          "name": "to",
          "type": "address"
        },
        {
          "internalType": "uint256",
          "name": "tokenId",
          "type": "uint256"
        }
      ],
      "name": "safeTransferFrom",
      "outputs": [],
      "stateMutability": "nonpayable",
      "type": "function"
    },
    {
      "inputs": [
        {
          "internalType": "address",
          "name": "from",
          "type": "address"
        },
        {
          "internalType": "address",
          "name": "to",
          "type": "address"
        },
        {
          "internalType": "uint256",
          "name": "tokenId",
          "type": "uint256"
        },
        {
          "internalType": "bytes",
          "name": "data",
          "type": "bytes"
        }
      ],
      "name": "safeTransferFrom",
      "outputs": [],
      "stateMutability": "nonpayable",
      "type": "function"
    },
    {
      "inputs": [
        {
          "internalType": "address",
          "name": "operator",
          "type": "address"
        },
        {
          "internalType": "bool",
          "name": "approved",
          "type": "bool"
        }
      ],
      "name": "setApprovalForAll",
      "outputs": [],
      "stateMutability": "nonpayable",
      "type": "function"
    },
    {
      "inputs": [
        {
          "internalType": "bytes4",
          "name": "interfaceId",
          "type": "bytes4"
        }
      ],
      "name": "supportsInterface",
      "outputs": [
        {
          "internalType": "bool",
          "name": "",
          "type": "bool"
        }
      ],
      "stateMutability": "view",
      "type": "function"
    },
    {
      "inputs": [],
      "name": "symbol",
      "outputs": [
        {
          "internalType": "string",
          "name": "",
          "type": "string"
        }
      ],
      "stateMutability": "view",
      "type": "function"
    },
    {
      "inputs": [
        {
          "internalType": "uint256",
          "name": "tokenId",
          "type": "uint256"
        }
      ],
      "name": "tokenURI",
      "outputs": [
        {
          "internalType": "string",
          "name": "",
          "type": "string"
        }
      ],
      "stateMutability": "view",
      "type": "function"
    },
    {
      "inputs": [
        {
          "internalType": "uint256",
          "name": "_evidenceId",
          "type": "uint256"
        },
        {
          "internalType": "address",
          "name": "_newCustodian",
          "type": "address"
        }
      ],
      "name": "transferCustody",
      "outputs": [],
      "stateMutability": "nonpayable",
      "type": "function"
    },
    {
      "inputs": [
        {
          "internalType": "address",
          "name": "from",
          "type": "address"
        },
        {
          "internalType": "address",
          "name": "to",
          "type": "address"
        },
        {
          "internalType": "uint256",
          "name": "tokenId",
          "type": "uint256"
        }
      ],
      "name": "transferFrom",
      "outputs": [],
      "stateMutability": "nonpayable",
      "type": "function"
    }
  ],
  "bytecode": "0x60806040523480156200001157600080fd5b506040518060400160405280601381526020017f436861696e4f66437573746f6479546f6b656e0000000000000000000000000081525060405180604001604052806003815260200162434f4360e81b81525081600090816200007591906200014e565b5060016200008482826200014e565b5050600980546001600160a01b031916331790555060006006819055600a556200021a565b634e487b7160e01b600052604160045260246000fd5b600181811c90821680620000d457607f821691505b602082108103620000f557634e487b7160e01b600052602260045260246000fd5b50919050565b601f8211156200014957600081815260208120601f850160051c81016020861015620001245750805b601f850160051c820191505b81811015620001455782815560010162000130565b5050505b505050565b81516001600160401b038111156200016a576200016a620000a9565b62000182816200017b8454620000bf565b84620000fb565b602080601f831160018114620001ba5760008415620001a15750858301515b600019600386901b1c1916600185901b17855562000145565b600085815260208120601f198616915b82811015620001eb57888601518255948401946001909101908401620001ca565b50858210156200020a5787850151600019600388901b60f8161c191681555b5050505050600190811b01905550565b611d28806200022a6000396000f3fe608060405234801561001057600080fd5b50600436106101375760003560e01c8063815fc9bb116100b8578063c87b56dd1161007c578063c87b56dd146102b9578063ce22d7da146102cc578063d75af31e1461030f578063e985e9c51461032f578063f6440ca014610342578063f851a4401461036457600080fd5b8063815fc9bb1461026557806395d89b4114610278578063a22cb46514610280578063b7fe126414610293578063b88d4fde146102a657600080fd5b806323b872dd116100ff57806323b872dd146101e55780632e4546cd146101f857806342842e0e1461021e5780636352211e1461023157806370a082311461024457600080fd5b806301ffc9a71461013c57806305d5f5151461016457806306fdde03146101a8578063081812fc146101bd578063095ea7b3146101d0575b600080fd5b61014f61014a36600461160a565b610377565b60405190151581526020015b60405180910390f35b610190610172366004611627565b6000908152600760205260409020600401546001600160a01b031690565b6040516001600160a01b03909116815260200161015b565b6101b06103c9565b60405161015b9190611690565b6101906101cb366004611627565b61045b565b6101e36101de3660046116bf565b610484565b005b6101e36101f33660046116e9565b610493565b61020b610206366004611627565b610523565b60405161015b9796959493929190611725565b6101e361022c3660046116e9565b610705565b61019061023f366004611627565b610725565b61025761025236600461178f565b610730565b60405190815260200161015b565b6101e36102733660046117aa565b610778565b6101b0610934565b6101e361028e3660046117d6565b610943565b6101e36102a13660046118be565b61094e565b6101e36102b4366004611946565b610b04565b6101b06102c7366004611627565b610b1c565b6102df6102da3660046119c2565b610b91565b60405161015b94939291909384526001600160a01b03928316602085015291166040830152606082015260800190565b61032261031d366004611627565b610be6565b60405161015b91906119e4565b61014f61033d366004611a54565b610c86565b610355610350366004611627565b610cb4565b60405161015b93929190611a7e565b600954610190906001600160a01b031681565b60006001600160e01b031982166380ac58cd60e01b14806103a857506001600160e01b03198216635b5e139f60e01b145b806103c357506301ffc9a760e01b6001600160e01b03198316145b92915050565b6060600080546103d890611ac1565b80601f016020809104026020016040519081016040528092919081815260200182805461040490611ac1565b80156104515780601f1061042657610100808354040283529160200191610451565b820191906000526020600020905b81548152906001019060200180831161043457829003601f168201915b5050505050905090565b600061046682610f48565b506000828152600460205260409020546001600160a01b03166103c3565b61048f828233610f81565b5050565b6001600160a01b0382166104c257604051633250574960e11b8152600060048201526024015b60405180910390fd5b60006104cf838333610f8e565b9050836001600160a01b0316816001600160a01b03161461051d576040516364283d7b60e01b81526001600160a01b03808616600483015260248201849052821660448201526064016104b9565b50505050565b6007602052600090815260409020805460018201805491929161054590611ac1565b80601f016020809104026020016040519081016040528092919081815260200182805461057190611ac1565b80156105be5780601f10610593576101008083540402835291602001916105be565b820191906000526020600020905b8154815290600101906020018083116105a157829003601f168201915b5050505050908060020180546105d390611ac1565b80601f01602080910402602001604051908101604052809291908181526020018280546105ff90611ac1565b801561064c5780601f106106215761010080835404028352916020019161064c565b820191906000526020600020905b81548152906001019060200180831161062f57829003601f168201915b50505050509080600301805461066190611ac1565b80601f016020809104026020016040519081016040528092919081815260200182805461068d90611ac1565b80156106da5780601f106106af576101008083540402835291602001916106da565b820191906000526020600020905b8154815290600101906020018083116106bd57829003601f168201915b505050506004830154600584015460069094015492936001600160a01b039091169290915060ff1687565b61072083838360405180602001604052806000815250610b04565b505050565b60006103c382610f48565b60006001600160a01b03821661075c576040516322718ad960e21b8152600060048201526024016104b9565b506001600160a01b031660009081526003602052604090205490565b60008281526007602052604090206004015482906001600160a01b031633146107f45760405162461bcd60e51b815260206004820152602860248201527f6f6e6c79207468652063757272656e7420637573746f6469616e2063616e2063604482015267616c6c207468697360c01b60648201526084016104b9565b60008381526007602052604090206006015460ff166108555760405162461bcd60e51b815260206004820152601760248201527f65766964656e636520646f6573206e6f7420657869737400000000000000000060448201526064016104b9565b604080516080810182528481523360208083018281526001600160a01b03878116858701818152426060880181815260008d8152600888528a81208054600180820183559183528983208c516004928302909101908155985191890180549289166001600160a01b03199384161790559451600289018054919098169082161790965590516003909601959095558b855260078652938890200180549092168117909155945190815292939287917f55f940726e9a2689d79bf3c29305c07b4df0134b15e5e06e78894b2d2fea3236910160405180910390a450505050565b6060600180546103d890611ac1565b61048f338383611087565b6009546001600160a01b031633146109b35760405162461bcd60e51b815260206004820152602260248201527f6f6e6c792061646d696e2063616e20706572666f726d2074686973206f70746960448201526137b760f11b60648201526084016104b9565b600a80549060006109c383611afb565b90915550506006546109d53382611126565b600680549060006109e583611afb565b90915550506040805160e0810182528281526020808201878152828401879052606083018690523360808401524260a0840152600160c0840181905260008681526007909352939091208251815590519192909190820190610a479082611b68565b5060408201516002820190610a5c9082611b68565b5060608201516003820190610a719082611b68565b5060808201516004820180546001600160a01b0319166001600160a01b0390921691909117905560a0820151600582015560c0909101516006909101805460ff1916911515919091179055604051339082907f1382d768c9adce45b1bccf47357aa0446253628bf4bc8734dab548d5f1d02d2590610af6908890889088904290611c28565b60405180910390a350505050565b610b0f848484610493565b61051d338585858561118b565b6060610b2782610f48565b506000610b3f60408051602081019091526000815290565b90506000815111610b5f5760405180602001604052806000815250610b8a565b80610b69846112b6565b604051602001610b7a929190611c73565b6040516020818303038152906040525b9392505050565b60086020528160005260406000208181548110610bad57600080fd5b600091825260209091206004909102018054600182015460028301546003909301549194506001600160a01b0390811693509091169084565b606060086000838152602001908152602001600020805480602002602001604051908101604052809291908181526020016000905b82821015610c7b5760008481526020908190206040805160808101825260048602909201805483526001808201546001600160a01b0390811685870152600283015416928401929092526003015460608301529083529092019101610c1b565b505050509050919050565b6001600160a01b03918216600090815260056020908152604080832093909416825291909152205460ff1690565b6000818152600760205260409020600601546060908190819060ff16610d1c5760405162461bcd60e51b815260206004820152601760248201527f45766964656e636520646f6573206e6f7420657869737400000000000000000060448201526064016104b9565b6000600760008681526020019081526020016000206040518060e001604052908160008201548152602001600182018054610d5690611ac1565b80601f0160208091040260200160405190810160405280929190818152602001828054610d8290611ac1565b8015610dcf5780601f10610da457610100808354040283529160200191610dcf565b820191906000526020600020905b815481529060010190602001808311610db257829003601f168201915b50505050508152602001600282018054610de890611ac1565b80601f0160208091040260200160405190810160405280929190818152602001828054610e1490611ac1565b8015610e615780601f10610e3657610100808354040283529160200191610e61565b820191906000526020600020905b815481529060010190602001808311610e4457829003601f168201915b50505050508152602001600382018054610e7a90611ac1565b80601f0160208091040260200160405190810160405280929190818152602001828054610ea690611ac1565b8015610ef35780601f10610ec857610100808354040283529160200191610ef3565b820191906000526020600020905b815481529060010190602001808311610ed657829003601f168201915b505050918352505060048201546001600160a01b0316602080830191909152600583015460408084019190915260069093015460ff161515606092830152830151918301519201519097919650945092505050565b6000818152600260205260408120546001600160a01b0316806103c357604051637e27328960e01b8152600481018490526024016104b9565b6107208383836001611349565b6000828152600260205260408120546001600160a01b0390811690831615610fbb57610fbb81848661144f565b6001600160a01b03811615610ff957610fd8600085600080611349565b6001600160a01b038116600090815260036020526040902080546000190190555b6001600160a01b03851615611028576001600160a01b0385166000908152600360205260409020805460010190555b60008481526002602052604080822080546001600160a01b0319166001600160a01b0389811691821790925591518793918516917fddf252ad1be2c89b69c2b068fc378daa952ba7f163c4a11628f55a4df523b3ef91a4949350505050565b6001600160a01b0382166110b957604051630b61174360e31b81526001600160a01b03831660048201526024016104b9565b6001600160a01b03838116600081815260056020908152604080832094871680845294825291829020805460ff191686151590811790915591519182527f17307eab39ab6107e8899845ad3d59bd9653f200f220920489ca2b5937696c31910160405180910390a3505050565b6001600160a01b03821661115057604051633250574960e11b8152600060048201526024016104b9565b600061115e83836000610f8e565b90506001600160a01b03811615610720576040516339e3563760e11b8152600060048201526024016104b9565b6001600160a01b0383163b156112af57604051630a85bd0160e11b81526001600160a01b0384169063150b7a02906111cd908890889087908790600401611ca2565b6020604051808303816000875af1925050508015611208575060408051601f3d908101601f1916820190925261120591810190611cd5565b60015b611271573d808015611236576040519150601f19603f3d011682016040523d82523d6000602084013e61123b565b606091505b50805160000361126957604051633250574960e11b81526001600160a01b03851660048201526024016104b9565b805181602001fd5b6001600160e01b03198116630a85bd0160e11b146112ad57604051633250574960e11b81526001600160a01b03851660048201526024016104b9565b505b5050505050565b606060006112c3836114b3565b600101905060008167ffffffffffffffff8111156112e3576112e3611812565b6040519080825280601f01601f19166020018201604052801561130d576020820181803683370190505b5090508181016020015b600019016f181899199a1a9b1b9c1cb0b131b232b360811b600a86061a8153600a850494508461131757509392505050565b808061135d57506001600160a01b03821615155b1561141f57600061136d84610f48565b90506001600160a01b038316158015906113995750826001600160a01b0316816001600160a01b031614155b80156113ac57506113aa8184610c86565b155b156113d55760405163a9fbf51f60e01b81526001600160a01b03841660048201526024016104b9565b811561141d5783856001600160a01b0316826001600160a01b03167f8c5be1e5ebec7d5bd14f71427d1e84f3dd0314c0f7b2291e5b200ac8c7c3b92560405160405180910390a45b505b5050600090815260046020526040902080546001600160a01b0319166001600160a01b0392909216919091179055565b61145a83838361158b565b610720576001600160a01b03831661148857604051637e27328960e01b8152600481018290526024016104b9565b60405163177e802f60e01b81526001600160a01b0383166004820152602481018290526044016104b9565b60008072184f03e93ff9f4daa797ed6e38ed64bf6a1f0160401b83106114f25772184f03e93ff9f4daa797ed6e38ed64bf6a1f0160401b830492506040015b6d04ee2d6d415b85acef8100000000831061151e576d04ee2d6d415b85acef8100000000830492506020015b662386f26fc10000831061153c57662386f26fc10000830492506010015b6305f5e1008310611554576305f5e100830492506008015b612710831061156857612710830492506004015b6064831061157a576064830492506002015b600a83106103c35760010192915050565b60006001600160a01b038316158015906115e95750826001600160a01b0316846001600160a01b031614806115c557506115c58484610c86565b806115e957506000828152600460205260409020546001600160a01b038481169116145b949350505050565b6001600160e01b03198116811461160757600080fd5b50565b60006020828403121561161c57600080fd5b8135610b8a816115f1565b60006020828403121561163957600080fd5b5035919050565b60005b8381101561165b578181015183820152602001611643565b50506000910152565b6000815180845261167c816020860160208601611640565b601f01601f19169290920160200192915050565b602081526000610b8a6020830184611664565b80356001600160a01b03811681146116ba57600080fd5b919050565b600080604083850312156116d257600080fd5b6116db836116a3565b946020939093013593505050565b6000806000606084860312156116fe57600080fd5b611707846116a3565b9250611715602085016116a3565b9150604084013590509250925092565b87815260e06020820152600061173e60e0830189611664565b82810360408401526117508189611664565b905082810360608401526117648188611664565b6001600160a01b03969096166080840152505060a0810192909252151560c090910152949350505050565b6000602082840312156117a157600080fd5b610b8a826116a3565b600080604083850312156117bd57600080fd5b823591506117cd602084016116a3565b90509250929050565b600080604083850312156117e957600080fd5b6117f2836116a3565b91506020830135801515811461180757600080fd5b809150509250929050565b634e487b7160e01b600052604160045260246000fd5b600067ffffffffffffffff8084111561184357611843611812565b604051601f8501601f19908116603f0116810190828211818310171561186b5761186b611812565b8160405280935085815286868601111561188457600080fd5b858560208301376000602087830101525050509392505050565b600082601f8301126118af57600080fd5b610b8a83833560208501611828565b6000806000606084860312156118d357600080fd5b833567ffffffffffffffff808211156118eb57600080fd5b6118f78783880161189e565b9450602086013591508082111561190d57600080fd5b6119198783880161189e565b9350604086013591508082111561192f57600080fd5b5061193c8682870161189e565b9150509250925092565b6000806000806080858703121561195c57600080fd5b611965856116a3565b9350611973602086016116a3565b925060408501359150606085013567ffffffffffffffff81111561199657600080fd5b8501601f810187136119a757600080fd5b6119b687823560208401611828565b91505092959194509250565b600080604083850312156119d557600080fd5b50508035926020909101359150565b602080825282518282018190526000919060409081850190868401855b82811015611a4757815180518552868101516001600160a01b03908116888701528682015116868601526060908101519085015260809093019290850190600101611a01565b5091979650505050505050565b60008060408385031215611a6757600080fd5b611a70836116a3565b91506117cd602084016116a3565b606081526000611a916060830186611664565b8281036020840152611aa38186611664565b90508281036040840152611ab78185611664565b9695505050505050565b600181811c90821680611ad557607f821691505b602082108103611af557634e487b7160e01b600052602260045260246000fd5b50919050565b600060018201611b1b57634e487b7160e01b600052601160045260246000fd5b5060010190565b601f82111561072057600081815260208120601f850160051c81016020861015611b495750805b601f850160051c820191505b818110156112ad57828155600101611b55565b815167ffffffffffffffff811115611b8257611b82611812565b611b9681611b908454611ac1565b84611b22565b602080601f831160018114611bcb5760008415611bb35750858301515b600019600386901b1c1916600185901b1785556112ad565b600085815260208120601f198616915b82811015611bfa57888601518255948401946001909101908401611bdb565b5085821015611c185787850151600019600388901b60f8161c191681555b5050505050600190811b01905550565b608081526000611c3b6080830187611664565b8281036020840152611c4d8187611664565b90508281036040840152611c618186611664565b91505082606083015295945050505050565b60008351611c85818460208801611640565b835190830190611c99818360208801611640565b01949350505050565b6001600160a01b0385811682528416602082015260408101839052608060608201819052600090611ab790830184611664565b600060208284031215611ce757600080fd5b8151610b8a816115f156fea2646970667358221220228e34101fe1c98b82db5af71bb7094e23f000b6510d65f8323947b29c4cfe2264736f6c63430008140033",
  "linkReferences": {},
  "deployedLinkReferences": {}
}